{
  "contractName": "Adoption",
  "abi": [
    {
      "constant": true,
      "inputs": [
        {
          "internalType": "uint256",
          "name": "",
          "type": "uint256"
        }
      ],
      "name": "adoptedPetIds",
      "outputs": [
        {
          "internalType": "uint256",
          "name": "",
          "type": "uint256"
        }
      ],
      "payable": false,
      "stateMutability": "view",
      "type": "function"
    },
    {
      "constant": true,
      "inputs": [
        {
          "internalType": "address",
          "name": "",
          "type": "address"
        },
        {
          "internalType": "uint256",
          "name": "",
          "type": "uint256"
        }
      ],
      "name": "adoptions",
      "outputs": [
        {
          "internalType": "uint256",
          "name": "",
          "type": "uint256"
        }
      ],
      "payable": false,
      "stateMutability": "view",
      "type": "function"
    },
    {
      "constant": true,
      "inputs": [
        {
          "internalType": "uint256",
          "name": "",
          "type": "uint256"
        }
      ],
      "name": "adoptors",
      "outputs": [
        {
          "internalType": "address",
          "name": "",
          "type": "address"
        }
      ],
      "payable": false,
      "stateMutability": "view",
      "type": "function"
    },
    {
      "constant": true,
      "inputs": [
        {
          "internalType": "uint256",
          "name": "",
          "type": "uint256"
        }
      ],
      "name": "allPets",
      "outputs": [
        {
          "internalType": "string",
          "name": "name",
          "type": "string"
        },
        {
          "internalType": "string",
          "name": "breed",
          "type": "string"
        },
        {
          "internalType": "uint256",
          "name": "age",
          "type": "uint256"
        },
        {
          "internalType": "string",
          "name": "location",
          "type": "string"
        }
      ],
      "payable": false,
      "stateMutability": "view",
      "type": "function"
    },
    {
      "constant": true,
      "inputs": [
        {
          "internalType": "address",
          "name": "",
          "type": "address"
        },
        {
          "internalType": "uint256",
          "name": "",
          "type": "uint256"
        }
      ],
      "name": "registrations",
      "outputs": [
        {
          "internalType": "uint256",
          "name": "",
          "type": "uint256"
        }
      ],
      "payable": false,
      "stateMutability": "view",
      "type": "function"
    },
    {
      "constant": false,
      "inputs": [
        {
          "internalType": "uint256",
          "name": "petId",
          "type": "uint256"
        }
      ],
      "name": "adopt",
      "outputs": [
        {
          "internalType": "uint256",
          "name": "",
          "type": "uint256"
        }
      ],
      "payable": false,
      "stateMutability": "nonpayable",
      "type": "function"
    },
    {
      "constant": false,
      "inputs": [
        {
          "internalType": "string",
          "name": "name",
          "type": "string"
        },
        {
          "internalType": "string",
          "name": "breed",
          "type": "string"
        },
        {
          "internalType": "uint256",
          "name": "age",
          "type": "uint256"
        },
        {
          "internalType": "string",
          "name": "location",
          "type": "string"
        }
      ],
      "name": "addPet",
      "outputs": [],
      "payable": false,
      "stateMutability": "nonpayable",
      "type": "function"
    },
    {
      "constant": true,
      "inputs": [],
      "name": "getPetsLen",
      "outputs": [
        {
          "internalType": "uint256",
          "name": "",
          "type": "uint256"
        }
      ],
      "payable": false,
      "stateMutability": "view",
      "type": "function"
    },
    {
      "constant": true,
      "inputs": [],
      "name": "getAdopters",
      "outputs": [
        {
          "internalType": "address[]",
          "name": "",
          "type": "address[]"
        }
      ],
      "payable": false,
      "stateMutability": "view",
      "type": "function"
    },
    {
      "constant": true,
      "inputs": [],
      "name": "getAllAdoptedPets",
      "outputs": [
        {
          "internalType": "uint256[]",
          "name": "",
          "type": "uint256[]"
        }
      ],
      "payable": false,
      "stateMutability": "view",
      "type": "function"
    },
    {
      "constant": true,
      "inputs": [
        {
          "internalType": "address",
          "name": "account",
          "type": "address"
        }
      ],
      "name": "getAdoptedPets",
      "outputs": [
        {
          "internalType": "uint256[]",
          "name": "",
          "type": "uint256[]"
        }
      ],
      "payable": false,
      "stateMutability": "view",
      "type": "function"
    },
    {
      "constant": true,
      "inputs": [
        {
          "internalType": "address",
          "name": "account",
          "type": "address"
        }
      ],
      "name": "getRegisteredPets",
      "outputs": [
        {
          "internalType": "uint256[]",
          "name": "",
          "type": "uint256[]"
        }
      ],
      "payable": false,
      "stateMutability": "view",
      "type": "function"
    }
  ],
  "bytecode": "0x608060405234801561001057600080fd5b50610fbf806100206000396000f3fe608060405234801561001057600080fd5b50600436106100b45760003560e01c80638ee2a9c8116100715780638ee2a9c8146104a7578063bd9208ef146104c5578063c71834dd14610507578063c81b43b114610575578063dc22ed3c146106fb578063dd9e298a1461075d576100b4565b806309052679146100b957806320ec87071461011b5780633de4eb171461030e5780633ff4a0eb1461036d57806375d6fb14146103cc5780638588b2c514610465575b600080fd5b610105600480360360408110156100cf57600080fd5b81019080803573ffffffffffffffffffffffffffffffffffffffff169060200190929190803590602001909291905050506107f6565b6040518082815260200191505060405180910390f35b61030c6004803603608081101561013157600080fd5b810190808035906020019064010000000081111561014e57600080fd5b82018360208201111561016057600080fd5b8035906020019184600183028401116401000000008311171561018257600080fd5b91908080601f016020809104026020016040519081016040528093929190818152602001838380828437600081840152601f19601f820116905080830192505050505050509192919290803590602001906401000000008111156101e557600080fd5b8201836020820111156101f757600080fd5b8035906020019184600183028401116401000000008311171561021957600080fd5b91908080601f016020809104026020016040519081016040528093929190818152602001838380828437600081840152601f19601f820116905080830192505050505050509192919290803590602001909291908035906020019064010000000081111561028657600080fd5b82018360208201111561029857600080fd5b803590602001918460018302840111640100000000831117156102ba57600080fd5b91908080601f016020809104026020016040519081016040528093929190818152602001838380828437600081840152601f19601f820116905080830192505050505050509192919290505050610824565b005b610316610952565b6040518080602001828103825283818151815260200191508051906020019060200280838360005b8381101561035957808201518184015260208101905061033e565b505050509050019250505060405180910390f35b6103756109e0565b6040518080602001828103825283818151815260200191508051906020019060200280838360005b838110156103b857808201518184015260208101905061039d565b505050509050019250505060405180910390f35b61040e600480360360208110156103e257600080fd5b81019080803573ffffffffffffffffffffffffffffffffffffffff169060200190929190505050610a38565b6040518080602001828103825283818151815260200191508051906020019060200280838360005b83811015610451578082015181840152602081019050610436565b505050509050019250505060405180910390f35b6104916004803603602081101561047b57600080fd5b8101908080359060200190929190505050610acf565b6040518082815260200191505060405180910390f35b6104af610b8a565b6040518082815260200191505060405180910390f35b6104f1600480360360208110156104db57600080fd5b8101908080359060200190929190505050610b97565b6040518082815260200191505060405180910390f35b6105336004803603602081101561051d57600080fd5b8101908080359060200190929190505050610bb8565b604051808273ffffffffffffffffffffffffffffffffffffffff1673ffffffffffffffffffffffffffffffffffffffff16815260200191505060405180910390f35b6105a16004803603602081101561058b57600080fd5b8101908080359060200190929190505050610bf4565b60405180806020018060200185815260200180602001848103845288818151815260200191508051906020019080838360005b838110156105ef5780820151818401526020810190506105d4565b50505050905090810190601f16801561061c5780820380516001836020036101000a031916815260200191505b50848103835287818151815260200191508051906020019080838360005b8381101561065557808201518184015260208101905061063a565b50505050905090810190601f1680156106825780820380516001836020036101000a031916815260200191505b50848103825285818151815260200191508051906020019080838360005b838110156106bb5780820151818401526020810190506106a0565b50505050905090810190601f1680156106e85780820380516001836020036101000a031916815260200191505b5097505050505050505060405180910390f35b6107476004803603604081101561071157600080fd5b81019080803573ffffffffffffffffffffffffffffffffffffffff16906020019092919080359060200190929190505050610df9565b6040518082815260200191505060405180910390f35b61079f6004803603602081101561077357600080fd5b81019080803573ffffffffffffffffffffffffffffffffffffffff169060200190929190505050610e27565b6040518080602001828103825283818151815260200191508051906020019060200280838360005b838110156107e25780820151818401526020810190506107c7565b505050509050019250505060405180910390f35b6001602052816000526040600020818154811061080f57fe5b90600052602060002001600091509150505481565b61082c610ebd565b6040518060800160405280868152602001858152602001848152602001838152509050600160003373ffffffffffffffffffffffffffffffffffffffff1673ffffffffffffffffffffffffffffffffffffffff16815260200190815260200160002060016003839080600181540180825580915050906001820390600052602060002090600402016000909192909190915060008201518160000190805190602001906108da929190610ee5565b5060208201518160010190805190602001906108f7929190610ee5565b5060408201518160020155606082015181600301908051906020019061091e929190610ee5565b5050500390806001815401808255809150509060018203906000526020600020016000909192909190915055505050505050565b606060028054806020026020016040519081016040528092919081815260200182805480156109d657602002820191906000526020600020905b8160009054906101000a900473ffffffffffffffffffffffffffffffffffffffff1673ffffffffffffffffffffffffffffffffffffffff168152602001906001019080831161098c575b5050505050905090565b60606004805480602002602001604051908101604052809291908181526020018280548015610a2e57602002820191906000526020600020905b815481526020019060010190808311610a1a575b5050505050905090565b6060600160008373ffffffffffffffffffffffffffffffffffffffff1673ffffffffffffffffffffffffffffffffffffffff168152602001908152602001600020805480602002602001604051908101604052809291908181526020018280548015610ac357602002820191906000526020600020905b815481526020019060010190808311610aaf575b50505050509050919050565b6000808210158015610ae5575060038054905082105b610aee57600080fd5b60048290806001815401808255809150509060018203906000526020600020016000909192909190915055506000803373ffffffffffffffffffffffffffffffffffffffff1673ffffffffffffffffffffffffffffffffffffffff168152602001908152602001600020829080600181540180825580915050906001820390600052602060002001600090919290919091505550819050919050565b6000600380549050905090565b60048181548110610ba457fe5b906000526020600020016000915090505481565b60028181548110610bc557fe5b906000526020600020016000915054906101000a900473ffffffffffffffffffffffffffffffffffffffff1681565b60038181548110610c0157fe5b9060005260206000209060040201600091509050806000018054600181600116156101000203166002900480601f016020809104026020016040519081016040528092919081815260200182805460018160011615610100020316600290048015610cad5780601f10610c8257610100808354040283529160200191610cad565b820191906000526020600020905b815481529060010190602001808311610c9057829003601f168201915b505050505090806001018054600181600116156101000203166002900480601f016020809104026020016040519081016040528092919081815260200182805460018160011615610100020316600290048015610d4b5780601f10610d2057610100808354040283529160200191610d4b565b820191906000526020600020905b815481529060010190602001808311610d2e57829003601f168201915b505050505090806002015490806003018054600181600116156101000203166002900480601f016020809104026020016040519081016040528092919081815260200182805460018160011615610100020316600290048015610def5780601f10610dc457610100808354040283529160200191610def565b820191906000526020600020905b815481529060010190602001808311610dd257829003601f168201915b5050505050905084565b60006020528160005260406000208181548110610e1257fe5b90600052602060002001600091509150505481565b60606000808373ffffffffffffffffffffffffffffffffffffffff1673ffffffffffffffffffffffffffffffffffffffff168152602001908152602001600020805480602002602001604051908101604052809291908181526020018280548015610eb157602002820191906000526020600020905b815481526020019060010190808311610e9d575b50505050509050919050565b6040518060800160405280606081526020016060815260200160008152602001606081525090565b828054600181600116156101000203166002900490600052602060002090601f016020900481019282601f10610f2657805160ff1916838001178555610f54565b82800160010185558215610f54579182015b82811115610f53578251825591602001919060010190610f38565b5b509050610f619190610f65565b5090565b610f8791905b80821115610f83576000816000905550600101610f6b565b5090565b9056fea265627a7a72315820db0603f135547abe17cc5b6febad19af179493f97a99cc76742f01c2cc8353ff64736f6c63430005100032",
  "source": "pragma solidity ^0.5.0;\n// pragma experimental ABIEncoderV2;\n\ncontract Adoption {\n    struct Pet{\n      string name;\n      string breed;\n      uint256 age;\n      string location;\n    }\n    mapping(address => uint256[]) public adoptions;\n    mapping(address => uint256[]) public registrations;\n    address[] public adoptors;\n    Pet[] public allPets;\n    uint256[] public adoptedPetIds;\n    // Adopting a pet\n    function adopt(uint256 petId) public returns (uint256) {\n        require(petId >= 0 && petId < allPets.length);\n        adoptedPetIds.push(petId);\n        adoptions[msg.sender].push(petId);\n        return petId;\n    }\n\n    function addPet(string memory name, string memory breed, uint256 age, string memory location) public {\n      Pet memory pet = Pet(name, breed, age, location);\n      registrations[msg.sender].push(allPets.push(pet) - 1);\n    }\n    function getPetsLen() public view returns (uint256) {\n      return allPets.length;\n    }\n    // function getAllPets() public view returns (Pet[] memory) {\n    //   return allPets;\n    // }\n\n    // Retrieving the adopters\n    function getAdopters() public view returns (address[] memory) {\n        return adoptors;\n    }\n    // Retrieving the adopted pets\n    function getAllAdoptedPets() public view returns (uint256[] memory) {\n        return adoptedPetIds;\n    }\n    // Retrieving the adopted pets of a given account\n    function getAdoptedPets(address account) public view returns (uint256[] memory) {\n        return adoptions[account];\n    }\n    // Retrieving the pets added by a given account\n    function getRegisteredPets(address account) public view returns (uint256[] memory) {\n        return registrations[account];\n    }\n}\n",
  "sourcePath": "/Users/nathanyu/Documents/workspace/qiqi/pet-shop/contracts/Adoption.sol",
  "compiler": {
    "name": "solc",
    "version": "0.5.16+commit.9c3226ce.Emscripten.clang"
  },
  "schemaVersion": "3.4.5",
  "updatedAt": "2022-04-23T23:31:02.947Z",
  "devdoc": {
    "methods": {}
  },
  "userdoc": {
    "methods": {}
  }
}