{
  "contractName": "Adoption",
  "abi": [
    {
      "constant": true,
      "inputs": [
        {
          "internalType": "uint256",
          "name": "",
          "type": "uint256"
        }
      ],
      "name": "adoptedIds",
      "outputs": [
        {
          "internalType": "uint256",
          "name": "",
          "type": "uint256"
        }
      ],
      "payable": false,
      "stateMutability": "view",
      "type": "function"
    },
    {
      "constant": true,
      "inputs": [
        {
          "internalType": "address",
          "name": "",
          "type": "address"
        },
        {
          "internalType": "uint256",
          "name": "",
          "type": "uint256"
        }
      ],
      "name": "adoptions",
      "outputs": [
        {
          "internalType": "uint256",
          "name": "",
          "type": "uint256"
        }
      ],
      "payable": false,
      "stateMutability": "view",
      "type": "function"
    },
    {
      "constant": true,
      "inputs": [
        {
          "internalType": "uint256",
          "name": "",
          "type": "uint256"
        }
      ],
      "name": "adoptors",
      "outputs": [
        {
          "internalType": "address",
          "name": "",
          "type": "address"
        }
      ],
      "payable": false,
      "stateMutability": "view",
      "type": "function"
    },
    {
      "constant": false,
      "inputs": [
        {
          "internalType": "uint256",
          "name": "petId",
          "type": "uint256"
        }
      ],
      "name": "adopt",
      "outputs": [
        {
          "internalType": "uint256",
          "name": "",
          "type": "uint256"
        }
      ],
      "payable": false,
      "stateMutability": "nonpayable",
      "type": "function"
    },
    {
      "constant": true,
      "inputs": [],
      "name": "getAdopters",
      "outputs": [
        {
          "internalType": "address[]",
          "name": "",
          "type": "address[]"
        }
      ],
      "payable": false,
      "stateMutability": "view",
      "type": "function"
    },
    {
      "constant": true,
      "inputs": [],
      "name": "getAdoptedPets",
      "outputs": [
        {
          "internalType": "uint256[]",
          "name": "",
          "type": "uint256[]"
        }
      ],
      "payable": false,
      "stateMutability": "view",
      "type": "function"
    }
  ],
  "bytecode": "0x608060405234801561001057600080fd5b50610530806100206000396000f3fe608060405234801561001057600080fd5b50600436106100625760003560e01c80630f46bdb1146100675780633de4eb17146100c6578063517ea569146101255780638588b2c514610167578063c71834dd146101a9578063dc22ed3c14610217575b600080fd5b61006f610279565b6040518080602001828103825283818151815260200191508051906020019060200280838360005b838110156100b2578082015181840152602081019050610097565b505050509050019250505060405180910390f35b6100ce6102d1565b6040518080602001828103825283818151815260200191508051906020019060200280838360005b838110156101115780820151818401526020810190506100f6565b505050509050019250505060405180910390f35b6101516004803603602081101561013b57600080fd5b810190808035906020019092919050505061035f565b6040518082815260200191505060405180910390f35b6101936004803603602081101561017d57600080fd5b8101908080359060200190929190505050610380565b6040518082815260200191505060405180910390f35b6101d5600480360360208110156101bf57600080fd5b8101908080359060200190929190505050610491565b604051808273ffffffffffffffffffffffffffffffffffffffff1673ffffffffffffffffffffffffffffffffffffffff16815260200191505060405180910390f35b6102636004803603604081101561022d57600080fd5b81019080803573ffffffffffffffffffffffffffffffffffffffff169060200190929190803590602001909291905050506104cd565b6040518082815260200191505060405180910390f35b606060028054806020026020016040519081016040528092919081815260200182805480156102c757602002820191906000526020600020905b8154815260200190600101908083116102b3575b5050505050905090565b6060600180548060200260200160405190810160405280929190818152602001828054801561035557602002820191906000526020600020905b8160009054906101000a900473ffffffffffffffffffffffffffffffffffffffff1673ffffffffffffffffffffffffffffffffffffffff168152602001906001019080831161030b575b5050505050905090565b6002818154811061036c57fe5b906000526020600020016000915090505481565b60008082101561038f57600080fd5b6000803373ffffffffffffffffffffffffffffffffffffffff1673ffffffffffffffffffffffffffffffffffffffff16815260200190815260200160002082908060018154018082558091505090600182039060005260206000200160009091929091909150555060013390806001815401808255809150509060018203906000526020600020016000909192909190916101000a81548173ffffffffffffffffffffffffffffffffffffffff021916908373ffffffffffffffffffffffffffffffffffffffff160217905550506002829080600181540180825580915050906001820390600052602060002001600090919290919091505550819050919050565b6001818154811061049e57fe5b906000526020600020016000915054906101000a900473ffffffffffffffffffffffffffffffffffffffff1681565b600060205281600052604060002081815481106104e657fe5b9060005260206000200160009150915050548156fea265627a7a72315820503e6277c0877d6b6223591761ac9389d8028bb8efa34f13a846d48e5229abc964736f6c63430005100032",
  "source": "pragma solidity ^0.5.0;\n\ncontract Adoption {\n    mapping(address => uint256[]) public adoptions;\n    address[] public adoptors;\n    uint256[] public adoptedIds;\n    // Adopting a pet\n    function adopt(uint256 petId) public returns (uint256) {\n        require(petId >= 0);\n\n        adoptions[msg.sender].push(petId);\n        adoptors.push(msg.sender);\n        adoptedIds.push(petId);\n        return petId;\n    }\n\n    // Retrieving the adopters\n    function getAdopters() public view returns (address[] memory) {\n        return adoptors;\n    }\n    // Retrieving the adopted pets\n    function getAdoptedPets() public view returns (uint256[] memory) {\n        return adoptedIds;\n    }\n}\n",
  "sourcePath": "/Users/nathanyu/Documents/workspace/qiqi/pet-shop/contracts/Adoption.sol",
  "compiler": {
    "name": "solc",
    "version": "0.5.16+commit.9c3226ce.Emscripten.clang"
  },
  "schemaVersion": "3.4.5",
  "updatedAt": "2022-04-20T02:07:13.963Z",
  "devdoc": {
    "methods": {}
  },
  "userdoc": {
    "methods": {}
  }
}